:100000000C9463000C948B000C948B000C948B006C
:100010000C948B000C948B000C948B000C94BD05FD
:100020000C948B000C948B000C948B000C948B0024
:100030000C948B000C948B000C948B000C948B0014
:100040000C9471060C948B000C943F060C941906CA
:100050000C948B000C948B000C948B000C948B00F4
:100060000C948B000C948B000000000024002700EF
:100070002A000000000023002600290000000008DC
:10008000000201000003040700000000000000005F
:10009000010204081020408001020408102001021F
:1000A0000408102000000000250028002B00040494
:1000B0000404040404040202020202020303030310
:1000C00003030200710811241FBECFEFD8E0DEBF8A
:1000D000CDBF11E0A0E0B1E0EEECF1E102C005908F
:1000E0000D92A831B107D9F721E0A8E1B1E001C034
:1000F0001D92AE3FB207E1F710E0C3E6D0E004C0C6
:100100002197FE010E94DF08C236D107C9F70E947D
:10011000BB060C94E5080C940000CF93DF931F926C
:10012000CDB7DEB750917C0040917A0030917B00D2
:1001300028B197B180E480937C0084E880937A00B2
:1001400010927B004098389A3898419A80917A00B2
:10015000806480937A0061E080917A0086FF04C019
:1001600088B1862788B9F8CF8091780060917900AE
:10017000698350937C0040937A0030937B0028B9C8
:1001800097B9817090E00F90DF91CF910895CF9350
:10019000DF930E948D00EC010E948D00880F991F53
:1001A0008C2B9D2B8130910539F0029791F781E0DE
:1001B00090E0DF91CF91089590E080E0FACFCF9367
:1001C000DF930E94C700EC010E94C700880F991FAF
:1001D0008C2B9D2B8130910539F0029791F781E0AE
:1001E00090E0DF91CF91089590E080E0FACFAF9258
:1001F000BF92CF92DF92EF92FF920F931F93CF9314
:10020000DF936C017B018B01040F151FEB015E0175
:10021000AE18BF08C017D10759F06991D601ED910A
:10022000FC910190F081E02DC6010995892B79F7A9
:10023000C501DF91CF911F910F91FF90EF90DF905B
:10024000CF90BF90AF900895FC01538D448D252F22
:1002500030E0842F90E0821B930B541710F0CF9660
:10026000089501970895FC01918D828D981761F092
:10027000A28DAE0FBF2FB11D5D968C91928D9F5FA9
:100280009F73928F90E008958FEF9FEF0895FC0188
:10029000918D828D981731F0828DE80FF11D858D3B
:1002A00090E008958FEF9FEF0895FC01918D228DCE
:1002B000892F90E0805C9F4F821B91098F73992753
:1002C000089581E691E00E94550121E0892B09F40F
:1002D00020E0822F089580E090E0892B29F00E9491
:1002E000610181110C9400000895FC01A48DA80FF8
:1002F000B92FB11DA35ABF4F2C91848D90E0019668
:100300008F739927848FA689B7892C93A089B18987
:100310008C91837080648C93938D848D981306C028
:100320000288F389E02D80818F7D80830895EF928C
:10033000FF920F931F93CF93DF93EC0181E0888F9F
:100340009B8D8C8D98131AC0E889F989808185FF6F
:1003500015C09FB7F894EE89FF896083E889F98911
:1003600080818370806480839FBF81E090E0DF9113
:10037000CF911F910F91FF90EF900895F62E0B8D66
:1003800010E00F5F1F4F0F731127E02E8C8D8E1121
:100390000CC00FB607FCFACFE889F989808185FF88
:1003A000F5CFCE010E947501F1CFEB8DEC0FFD2F43
:1003B000F11DE35AFF4FF0829FB7F8940B8FEA8943
:1003C000FB8980818062CFCFCF93DF93EC01888D52
:1003D0008823B9F0AA89BB89E889F9898C9185FDC0
:1003E00003C0808186FD0DC00FB607FCF7CF8C914E
:1003F00085FFF2CF808185FFEDCFCE010E94750190
:10040000E9CFDF91CF910895833081F028F48130D6
:1004100099F08230A9F008958730A9F08830C9F0AA
:100420008430B1F4809180008F7D03C08091800082
:100430008F7780938000089584B58F7784BD089569
:1004400084B58F7DFBCF8091B0008F778093B00013
:1004500008958091B0008F7DF9CF1F93CF93DF93E4
:10046000282F30E0F901E458FF4F8491F901E0575B
:10047000FF4FD491F901E255FF4FC491CC23A9F06D
:10048000162F81110E940402EC2FF0E0EE0FFF1FE7
:10049000EC55FF4FA591B4918FB7F894EC911111E1
:1004A00008C0D095DE23DC938FBFDF91CF911F91E1
:1004B0000895DE2BF8CF9091020189130BC0E2EC76
:1004C000F0E0E4919FEF90930201E13049F028F0D1
:1004D000E23061F060E00C942D0210926E00FACFD1
:1004E00090916F009D7F90936F00F4CF909170007A
:1004F0009D7F9093700091E09093B0009091B10037
:10050000987F94609093B1001092B300E3CFCF93A3
:10051000DF9390E0FC01E057FF4F249182559F4FFD
:10052000FC0184918823D1F090E0880F991FFC0191
:10053000E859FF4FA591B491FC01EC55FF4FC591CF
:10054000D49161110EC09FB7F8948C91E22FE09581
:100550008E238C932881E223E8839FBFDF91CF9184
:1005600008958FB7F894EC91E22BEC938FBFF6CF00
:100570008F929F92AF92BF92CF92DF92EF92FF92B3
:10058000CF936C01809102018D3069F08F3F09F4A7
:1005900070C0CF91FF90EF90DF90CF90BF90AF9061
:1005A0009F908F900895E2ECF0E0C491C7FDF1CFE9
:1005B00061E08DE00E948702CC2319F0C23009F07F
:1005C00022C1F12CE12C60E072E18AE790E0A70102
:1005D00096010E94C00849015A01DA01C901019738
:1005E000A109B1098F3F9105A105B10509F00CF4EE
:1005F000EEC060E472E48FE090E0A70196010E94F3
:10060000C0082150310941095109C23009F0A0C088
:1006100082E02F3F31054105510509F00CF488C1F6
:1006200060E970ED83E090E0A70196010E94C008A8
:10063000215031094109510983E02F3F310541051E
:10064000510509F00CF474C168E478EE81E090E0A3
:10065000A70196010E94C0082150310941095109A2
:100660002F3F31054105510511F00CF08FC084E09A
:100670005FC18DE080930201E2ECF0E0C491CF3FD6
:1006800009F487CFC13021F150F0C23009F43EC0E7
:10069000C7FD7FCF61E08DE00E9487028FCF14BC41
:1006A00015BC84B5826084BD85B5816085BDEBEBEA
:1006B000F0E0E491F0E0EE0FFF1FEC55FF4F859165
:1006C0009491EDE9F0E0E491E0935401C0E070CF43
:1006D0001092800010928100809181008860809348
:1006E000810080918100816080938100EBEBF0E0DC
:1006F000E491F0E0EE0FFF1FEC55FF4F85919491D0
:10070000EDE9F0E0E491E093530152CF1092B00094
:100710001092B1008091B00082608093B00080910F
:10072000B10081608093B100EBEBF0E0E491F0E088
:10073000EE0FFF1FEC55FF4F85919491909352015E
:1007400080935101EDE9F0E0E491E093500130CF66
:100750002F3F31054105510509F00CF452C068E402
:1007600078EE81E090E0A70196010E94C008215038
:10077000310941095109CC2309F4AFC02F3F31059C
:100780004105510511F00CF0B0C071CF64E274EF77
:1007900080E090E0A70196010E94C0082150310935
:1007A0004109510985E02F3F31054105510509F007
:1007B00008F4BEC062E17AE780E090E0A70196010C
:1007C0000E94C00821503109410951099CC09C0177
:1007D00081E0C111ADC095B5987F892B85BD27BD3E
:1007E0008FEF9FEFDC0180935D0190935E01A093FA
:1007F0005F01B093600180916E00826080936E0013
:10080000C8CE82E0E6CFF12CE12C60E072E18AE70D
:1008100090E0A70196010E94C008215031094109CA
:10082000510991E02115310581E0480751056CF02F
:1008300068E478EE81E090E0A70196010E94C0088C
:10084000215031094109510993E0C13009F076C0C6
:1008500080918100887F892B80938100309389006B
:10086000209388008FEF9FEFDC01809359019093D4
:100870005A01A0935B01B0935C0180916F0082608C
:1008800080936F0086CE2093B3008FEF9FEFDC0143
:100890008093550190935601A0935701B09358014E
:1008A0008091700082608093700073CE84E02F3F4F
:1008B00031054105510509F008F48DCF9AE0B59452
:1008C000A794979487949A95D1F7A5019401215004
:1008D00031094109510985E07ECF83E02F3F310581
:1008E0004105510509F00CF476CF62E17AE780E02A
:1008F00090E0A70196010E94C008215031094109EA
:100900005109CC2399F286E02F3F3105410551056D
:1009100079F070F08AE0B594A794979487948A95BB
:10092000D1F7A5019401215031094109510987E00E
:100930009091B100987F892B8093B100C13009F468
:100940008DCFC23009F49FCFC11123CE48CF3FB71E
:10095000F89480911D0190911E01A0911F01B0910A
:10096000200126B5A89B05C02F3F19F00196A11DB7
:10097000B11D3FBFBA2FA92F982F8827BC01CD01E9
:10098000620F711D811D911D42E0660F771F881F48
:10099000991F4A95D1F708958F929F92AF92BF9277
:1009A000CF92DF92EF92FF924B015C010E94A7046D
:1009B0006B017C010E94A7046C197D098E099F09B7
:1009C000683E734081059105A8F321E0821A9108E1
:1009D000A108B10888EEC80E83E0D81EE11CF11C06
:1009E00081149104A104B10429F7FF90EF90DF90E6
:1009F000CF90BF90AF909F908F9008951F93CF930B
:100A0000DF93EC01182F1D5F61E0812F0E942D0202
:100A1000CC0FDD1FCF5DDE4F888199810E94B80227
:100A200064EF71E080E090E00E94CC0460E0812FF0
:100A30000E942D028DE0DF91CF911F910C945B02FB
:100A40008F929F92AF92BF920F931F93CF93DF939A
:100A5000CDB7DEB7A1970FB6F894DEBF0FBECDBFFE
:100A600019A2423008F44AE08E010F5D1F4F842E18
:100A7000912CB12CA12CA50194010E949E08E62F77
:100A8000B901CA01EA3044F5E05DD801EE938D0169
:100A9000232B242B252B79F790E080E0109769F029
:100AA000FD0101900020E9F73197AF014A1B5B0B74
:100AB000BD0181E691E00E94F700A1960FB6F8947F
:100AC000DEBF0FBECDBFDF91CF911F910F91BF90C1
:100AD000AF909F908F900895E95CD7CF8F929F92AF
:100AE000AF92BF92CF92DF92EF92FF920F931F933C
:100AF000CF93DF93C7E2D1E00FE411E092E0892EBB
:100B0000912CA12CB12CC12CD12C76010E94DF009C
:100B1000892B51F0C828D928EA28FB2883E0C81679
:100B2000D104E104F10451F38A9489288A288B289E
:100B3000F9F4C992D9924AE0C701B6010E94200592
:100B400042E050E065E171E081E691E00E94F7004B
:100B50000C171D0799F6DF91CF911F910F91FF9010
:100B6000EF90DF90CF90BF90AF909F908F900895BF
:100B7000812C912C54018394C9CF1F920F920FB6F0
:100B80000F9211242F933F934F935F936F937F9313
:100B90008F939F93AF93BF93EF93FF9380915501F2
:100BA00090915601A0915701B0915801892B8A2B41
:100BB0008B2BD1F190915001E0915101F0915201B4
:100BC0008081892780838091550190915601A09161
:100BD0005701B0915801181619061A061B069CF405
:100BE0008091550190915601A0915701B091580103
:100BF0000197A109B1098093550190935601A093E3
:100C00005701B0935801FF91EF91BF91AF919F9120
:100C10008F917F916F915F914F913F912F910F90A5
:100C20000FBE0F901F901895809102010E945B02E9
:100C3000EACF1F920F920FB60F9211242F933F937A
:100C40004F935F936F937F938F939F93AF93BF93D4
:100C5000EF93FF9381E691E00E947501FF91EF9180
:100C6000BF91AF919F918F917F916F915F914F91C4
:100C70003F912F910F900FBE0F901F9018951F92CC
:100C80000F920FB60F9211242F938F939F93EF9390
:100C9000FF93E0917101F09172018081E091770101
:100CA000F091780182FD1BC0908180917A018F5F65
:100CB0008F7320917B01821741F0E0917A01F0E07F
:100CC000EF59FE4F958F80937A01FF91EF919F919D
:100CD0008F912F910F900FBE0F901F9018958081CC
:100CE000F4CF1F920F920FB60F9211242F933F93C0
:100CF0008F939F93AF93BF938091190190911A01A5
:100D0000A0911B01B0911C013091180123E0230F29
:100D10002D3758F50196A11DB11D20931801809320
:100D2000190190931A01A0931B01B0931C018091AB
:100D30001D0190911E01A0911F01B091200101960B
:100D4000A11DB11D80931D0190931E01A0931F0151
:100D5000B0932001BF91AF919F918F913F912F91BF
:100D60000F900FBE0F901F90189526E8230F029644
:100D7000A11DB11DD2CF789484B5826084BD84B5A5
:100D8000816084BD85B5826085BD85B5816085BD86
:100D900080916E00816080936E001092810080913E
:100DA00081008260809381008091810081608093C6
:100DB0008100809180008160809380008091B100EB
:100DC00084608093B1008091B00081608093B00016
:100DD00080917A00846080937A0080917A008260AA
:100DE00080937A0080917A00816080937A0080916C
:100DF0007A00806880937A001092C100E0917101BE
:100E0000F091720182E08083E0916D01F0916E01BA
:100E10001082E0916F01F09170018FEC808310924D
:100E20007901E0917501F091760186E08083E0918F
:100E30007301F0917401808180618083E09173017E
:100E4000F0917401808188608083E0917301F0915A
:100E50007401808180688083E0917301F091740156
:100E600080818F7D808361E08DE00E94870261E058
:100E700083E00E94870260E086E00E94870288EC9F
:100E800090E0909322018093210161E084E00E9430
:100E9000870260E087E00E9487028CE291E09093F5
:100EA00024018093230161E085E00E94870260E0D5
:100EB00088E00E94870280E991E090932601809368
:100EC00025010E946E0530E0E32E30E0F32E43E072
:100ED000C42ED12CC7E2D1E010E000E080910001E7
:100EE0009091010108171907F4F4A88099802296BF
:100EF00023E0B22EBA0C61E08B2D0E942D028A2DC8
:100F0000992D0E94FE0464EF71E080E090E00E9461
:100F1000CC0460E08B2D0E942D028DE00E945B02CC
:100F20000F5F1F4FDBCF10924F0110E000E0809168
:100F30004F018111CAC0D0E0C0E0FE01EE57FF4F63
:100F40008491FE01EA56FF4FB490FE01EC54FF4F2E
:100F5000A490AA2009F4B3C081110E940402EA2DD2
:100F6000F0E0EE0FFF1FEE58FF4FA591B491EC910A
:100F7000BE2209F4A4C0F801EE0FFF1FE95DFE4F89
:100F8000808191818C179D0709F05BC058018FEF1C
:100F9000A81AB80ACE010E94FE0480910001909127
:100FA0000101A816B90609F04AC081E080934F01FB
:100FB0000E5F1F4F109301010093000113E061E0E9
:100FC000812F0E942D0262E370E080E090E00E9499
:100FD000CC041F5F163099F784EF91E00E94B802AD
:100FE00066E970E080E090E00E94CC0488E592E041
:100FF0000E94B80266E970E080E090E00E94CC04B4
:101000008CEB92E00E94B80266E970E080E090E02C
:101010000E94CC048DE00E945B0264EF71E080E0EE
:1010200090E00E94CC0460E083E00E942D0260E02A
:1010300084E00E942D0260E085E00E942D0285017F
:101040003EC0D0920101C092000161E083E00E94A5
:101050002D0261E084E00E942D0261E085E00E94A3
:101060002D0284E690E00E94B80264E670E080E021
:1010700090E00E94CC0488EC90E00E94B80268ECFA
:1010800070E080E090E00E94CC048DE00E945B0262
:101090006CE271E080E090E00E94CC0460E083E0CC
:1010A0000E942D0260E084E00E942D0260E085E055
:1010B0000E942D020E946E0581E080934F012196CF
:1010C000C330D10509F039CF32CFE114F10409F46E
:1010D00001CF0E946101882309F4FCCE0E94000028
:1010E000F9CEE1E6F1E01382128288EE93E0A0E00F
:1010F000B0E084839583A683B78387E091E09183F2
:10110000808385EC90E09587848784EC90E09787D6
:10111000868780EC90E0918B808B81EC90E0938BC4
:10112000828B82EC90E0958B848B86EC90E0978BA1
:10113000868B118E128E138E148E0895A1E21A2EB4
:10114000AA1BBB1BFD010DC0AA1FBB1FEE1FFF1F6B
:10115000A217B307E407F50720F0A21BB30BE40BBB
:10116000F50B661F771F881F991F1A9469F7609502
:101170007095809590959B01AC01BD01CF010895BC
:10118000052E97FB1EF400940E94D70857FD07D048
:101190000E949E0807FC03D04EF40C94D70850958B
:1011A0004095309521953F4F4F4F5F4F0895909553
:1011B0008095709561957F4F8F4F9F4F0895EE0FEB
:0E11C000FF1F0590F491E02D0994F894FFCFE5
:1011CE000300FF000000009701F7002401E4015521
:0811DE0001330147010D0A0075
:00000001FF
